{
  "_format": "hh-sol-artifact-1",
  "contractName": "NFT",
  "sourceName": "contracts/NFT.sol",
  "abi": [
    {
      "inputs": [],
      "stateMutability": "nonpayable",
      "type": "constructor"
    },
    {
      "inputs": [
        {
          "internalType": "address",
          "name": "sender",
          "type": "address"
        },
        {
          "internalType": "uint256",
          "name": "tokenId",
          "type": "uint256"
        },
        {
          "internalType": "address",
          "name": "owner",
          "type": "address"
        }
      ],
      "name": "ERC721IncorrectOwner",
      "type": "error"
    },
    {
      "inputs": [
        {
          "internalType": "address",
          "name": "operator",
          "type": "address"
        },
        {
          "internalType": "uint256",
          "name": "tokenId",
          "type": "uint256"
        }
      ],
      "name": "ERC721InsufficientApproval",
      "type": "error"
    },
    {
      "inputs": [
        {
          "internalType": "address",
          "name": "approver",
          "type": "address"
        }
      ],
      "name": "ERC721InvalidApprover",
      "type": "error"
    },
    {
      "inputs": [
        {
          "internalType": "address",
          "name": "operator",
          "type": "address"
        }
      ],
      "name": "ERC721InvalidOperator",
      "type": "error"
    },
    {
      "inputs": [
        {
          "internalType": "address",
          "name": "owner",
          "type": "address"
        }
      ],
      "name": "ERC721InvalidOwner",
      "type": "error"
    },
    {
      "inputs": [
        {
          "internalType": "address",
          "name": "receiver",
          "type": "address"
        }
      ],
      "name": "ERC721InvalidReceiver",
      "type": "error"
    },
    {
      "inputs": [
        {
          "internalType": "address",
          "name": "sender",
          "type": "address"
        }
      ],
      "name": "ERC721InvalidSender",
      "type": "error"
    },
    {
      "inputs": [
        {
          "internalType": "uint256",
          "name": "tokenId",
          "type": "uint256"
        }
      ],
      "name": "ERC721NonexistentToken",
      "type": "error"
    },
    {
      "anonymous": false,
      "inputs": [
        {
          "indexed": true,
          "internalType": "address",
          "name": "owner",
          "type": "address"
        },
        {
          "indexed": true,
          "internalType": "address",
          "name": "approved",
          "type": "address"
        },
        {
          "indexed": true,
          "internalType": "uint256",
          "name": "tokenId",
          "type": "uint256"
        }
      ],
      "name": "Approval",
      "type": "event"
    },
    {
      "anonymous": false,
      "inputs": [
        {
          "indexed": true,
          "internalType": "address",
          "name": "owner",
          "type": "address"
        },
        {
          "indexed": true,
          "internalType": "address",
          "name": "operator",
          "type": "address"
        },
        {
          "indexed": false,
          "internalType": "bool",
          "name": "approved",
          "type": "bool"
        }
      ],
      "name": "ApprovalForAll",
      "type": "event"
    },
    {
      "anonymous": false,
      "inputs": [
        {
          "indexed": true,
          "internalType": "address",
          "name": "from",
          "type": "address"
        },
        {
          "indexed": true,
          "internalType": "address",
          "name": "to",
          "type": "address"
        },
        {
          "indexed": true,
          "internalType": "uint256",
          "name": "tokenId",
          "type": "uint256"
        }
      ],
      "name": "Transfer",
      "type": "event"
    },
    {
      "inputs": [
        {
          "internalType": "address",
          "name": "to",
          "type": "address"
        },
        {
          "internalType": "uint256",
          "name": "tokenId",
          "type": "uint256"
        }
      ],
      "name": "approve",
      "outputs": [],
      "stateMutability": "nonpayable",
      "type": "function"
    },
    {
      "inputs": [
        {
          "internalType": "address",
          "name": "owner",
          "type": "address"
        }
      ],
      "name": "balanceOf",
      "outputs": [
        {
          "internalType": "uint256",
          "name": "",
          "type": "uint256"
        }
      ],
      "stateMutability": "view",
      "type": "function"
    },
    {
      "inputs": [
        {
          "internalType": "uint256",
          "name": "tokenId",
          "type": "uint256"
        }
      ],
      "name": "getApproved",
      "outputs": [
        {
          "internalType": "address",
          "name": "",
          "type": "address"
        }
      ],
      "stateMutability": "view",
      "type": "function"
    },
    {
      "inputs": [
        {
          "internalType": "address",
          "name": "owner",
          "type": "address"
        },
        {
          "internalType": "address",
          "name": "operator",
          "type": "address"
        }
      ],
      "name": "isApprovedForAll",
      "outputs": [
        {
          "internalType": "bool",
          "name": "",
          "type": "bool"
        }
      ],
      "stateMutability": "view",
      "type": "function"
    },
    {
      "inputs": [
        {
          "internalType": "address",
          "name": "recipient",
          "type": "address"
        }
      ],
      "name": "mint",
      "outputs": [
        {
          "internalType": "uint256",
          "name": "",
          "type": "uint256"
        }
      ],
      "stateMutability": "nonpayable",
      "type": "function"
    },
    {
      "inputs": [],
      "name": "name",
      "outputs": [
        {
          "internalType": "string",
          "name": "",
          "type": "string"
        }
      ],
      "stateMutability": "view",
      "type": "function"
    },
    {
      "inputs": [
        {
          "internalType": "uint256",
          "name": "tokenId",
          "type": "uint256"
        }
      ],
      "name": "ownerOf",
      "outputs": [
        {
          "internalType": "address",
          "name": "",
          "type": "address"
        }
      ],
      "stateMutability": "view",
      "type": "function"
    },
    {
      "inputs": [
        {
          "internalType": "address",
          "name": "from",
          "type": "address"
        },
        {
          "internalType": "address",
          "name": "to",
          "type": "address"
        },
        {
          "internalType": "uint256",
          "name": "tokenId",
          "type": "uint256"
        }
      ],
      "name": "safeTransferFrom",
      "outputs": [],
      "stateMutability": "nonpayable",
      "type": "function"
    },
    {
      "inputs": [
        {
          "internalType": "address",
          "name": "from",
          "type": "address"
        },
        {
          "internalType": "address",
          "name": "to",
          "type": "address"
        },
        {
          "internalType": "uint256",
          "name": "tokenId",
          "type": "uint256"
        },
        {
          "internalType": "bytes",
          "name": "data",
          "type": "bytes"
        }
      ],
      "name": "safeTransferFrom",
      "outputs": [],
      "stateMutability": "nonpayable",
      "type": "function"
    },
    {
      "inputs": [
        {
          "internalType": "address",
          "name": "operator",
          "type": "address"
        },
        {
          "internalType": "bool",
          "name": "approved",
          "type": "bool"
        }
      ],
      "name": "setApprovalForAll",
      "outputs": [],
      "stateMutability": "nonpayable",
      "type": "function"
    },
    {
      "inputs": [
        {
          "internalType": "bytes4",
          "name": "interfaceId",
          "type": "bytes4"
        }
      ],
      "name": "supportsInterface",
      "outputs": [
        {
          "internalType": "bool",
          "name": "",
          "type": "bool"
        }
      ],
      "stateMutability": "view",
      "type": "function"
    },
    {
      "inputs": [],
      "name": "symbol",
      "outputs": [
        {
          "internalType": "string",
          "name": "",
          "type": "string"
        }
      ],
      "stateMutability": "view",
      "type": "function"
    },
    {
      "inputs": [
        {
          "internalType": "uint256",
          "name": "tokenId",
          "type": "uint256"
        }
      ],
      "name": "tokenURI",
      "outputs": [
        {
          "internalType": "string",
          "name": "",
          "type": "string"
        }
      ],
      "stateMutability": "view",
      "type": "function"
    },
    {
      "inputs": [
        {
          "internalType": "address",
          "name": "from",
          "type": "address"
        },
        {
          "internalType": "address",
          "name": "to",
          "type": "address"
        },
        {
          "internalType": "uint256",
          "name": "tokenId",
          "type": "uint256"
        }
      ],
      "name": "transferFrom",
      "outputs": [],
      "stateMutability": "nonpayable",
      "type": "function"
    }
  ],
  "bytecode": "0x60806040523480156200001157600080fd5b506040518060400160405280600881526020017f4e4654204e616d650000000000000000000000000000000000000000000000008152506040518060400160405280600381526020017f4e4554000000000000000000000000000000000000000000000000000000000081525081600090816200008f91906200032c565b508060019081620000a191906200032c565b505050600060068190555062000413565b600081519050919050565b7f4e487b7100000000000000000000000000000000000000000000000000000000600052604160045260246000fd5b7f4e487b7100000000000000000000000000000000000000000000000000000000600052602260045260246000fd5b600060028204905060018216806200013457607f821691505b6020821081036200014a5762000149620000ec565b5b50919050565b60008190508160005260206000209050919050565b60006020601f8301049050919050565b600082821b905092915050565b600060088302620001b47fffffffffffffffffffffffffffffffffffffffffffffffffffffffffffffffff8262000175565b620001c0868362000175565b95508019841693508086168417925050509392505050565b6000819050919050565b6000819050919050565b60006200020d620002076200020184620001d8565b620001e2565b620001d8565b9050919050565b6000819050919050565b6200022983620001ec565b62000241620002388262000214565b84845462000182565b825550505050565b600090565b6200025862000249565b620002658184846200021e565b505050565b5b818110156200028d57620002816000826200024e565b6001810190506200026b565b5050565b601f821115620002dc57620002a68162000150565b620002b18462000165565b81016020851015620002c1578190505b620002d9620002d08562000165565b8301826200026a565b50505b505050565b600082821c905092915050565b60006200030160001984600802620002e1565b1980831691505092915050565b60006200031c8383620002ee565b9150826002028217905092915050565b6200033782620000b2565b67ffffffffffffffff811115620003535762000352620000bd565b5b6200035f82546200011b565b6200036c82828562000291565b600060209050601f831160018114620003a457600084156200038f578287015190505b6200039b85826200030e565b8655506200040b565b601f198416620003b48662000150565b60005b82811015620003de57848901518255600182019150602085019450602081019050620003b7565b86831015620003fe5784890151620003fa601f891682620002ee565b8355505b6001600288020188555050505b505050505050565b611ea480620004236000396000f3fe608060405234801561001057600080fd5b50600436106100ea5760003560e01c80636a6278421161008c578063a22cb46511610066578063a22cb4651461026f578063b88d4fde1461028b578063c87b56dd146102a7578063e985e9c5146102d7576100ea565b80636a627842146101f157806370a082311461022157806395d89b4114610251576100ea565b8063095ea7b3116100c8578063095ea7b31461016d57806323b872dd1461018957806342842e0e146101a55780636352211e146101c1576100ea565b806301ffc9a7146100ef57806306fdde031461011f578063081812fc1461013d575b600080fd5b61010960048036038101906101049190611677565b610307565b60405161011691906116bf565b60405180910390f35b6101276103e9565b604051610134919061176a565b60405180910390f35b610157600480360381019061015291906117c2565b61047b565b6040516101649190611830565b60405180910390f35b61018760048036038101906101829190611877565b610497565b005b6101a3600480360381019061019e91906118b7565b6104ad565b005b6101bf60048036038101906101ba91906118b7565b6105af565b005b6101db60048036038101906101d691906117c2565b6105cf565b6040516101e89190611830565b60405180910390f35b61020b6004803603810190610206919061190a565b6105e1565b6040516102189190611946565b60405180910390f35b61023b6004803603810190610236919061190a565b610614565b6040516102489190611946565b60405180910390f35b6102596106ce565b604051610266919061176a565b60405180910390f35b6102896004803603810190610284919061198d565b610760565b005b6102a560048036038101906102a09190611b02565b610776565b005b6102c160048036038101906102bc91906117c2565b610793565b6040516102ce919061176a565b60405180910390f35b6102f160048036038101906102ec9190611b85565b6107fc565b6040516102fe91906116bf565b60405180910390f35b60007f80ac58cd000000000000000000000000000000000000000000000000000000007bffffffffffffffffffffffffffffffffffffffffffffffffffffffff1916827bffffffffffffffffffffffffffffffffffffffffffffffffffffffff191614806103d257507f5b5e139f000000000000000000000000000000000000000000000000000000007bffffffffffffffffffffffffffffffffffffffffffffffffffffffff1916827bffffffffffffffffffffffffffffffffffffffffffffffffffffffff1916145b806103e257506103e182610890565b5b9050919050565b6060600080546103f890611bf4565b80601f016020809104026020016040519081016040528092919081815260200182805461042490611bf4565b80156104715780601f1061044657610100808354040283529160200191610471565b820191906000526020600020905b81548152906001019060200180831161045457829003601f168201915b5050505050905090565b6000610486826108fa565b5061049082610982565b9050919050565b6104a982826104a46109bf565b6109c7565b5050565b600073ffffffffffffffffffffffffffffffffffffffff168273ffffffffffffffffffffffffffffffffffffffff160361051f5760006040517f64a0ae920000000000000000000000000000000000000000000000000000000081526004016105169190611830565b60405180910390fd5b6000610533838361052e6109bf565b6109d9565b90508373ffffffffffffffffffffffffffffffffffffffff168173ffffffffffffffffffffffffffffffffffffffff16146105a9578382826040517f64283d7b0000000000000000000000000000000000000000000000000000000081526004016105a093929190611c25565b60405180910390fd5b50505050565b6105ca83838360405180602001604052806000815250610776565b505050565b60006105da826108fa565b9050919050565b60008060065490506105f38382610bf3565b6006600081548092919061060690611c8b565b919050555080915050919050565b60008073ffffffffffffffffffffffffffffffffffffffff168273ffffffffffffffffffffffffffffffffffffffff16036106875760006040517f89c62b6400000000000000000000000000000000000000000000000000000000815260040161067e9190611830565b60405180910390fd5b600360008373ffffffffffffffffffffffffffffffffffffffff1673ffffffffffffffffffffffffffffffffffffffff168152602001908152602001600020549050919050565b6060600180546106dd90611bf4565b80601f016020809104026020016040519081016040528092919081815260200182805461070990611bf4565b80156107565780601f1061072b57610100808354040283529160200191610756565b820191906000526020600020905b81548152906001019060200180831161073957829003601f168201915b5050505050905090565b61077261076b6109bf565b8383610c11565b5050565b6107818484846104ad565b61078d84848484610d80565b50505050565b606061079e826108fa565b5060006107a9610f37565b905060008151116107c957604051806020016040528060008152506107f4565b806107d384610f4e565b6040516020016107e4929190611d0f565b6040516020818303038152906040525b915050919050565b6000600560008473ffffffffffffffffffffffffffffffffffffffff1673ffffffffffffffffffffffffffffffffffffffff16815260200190815260200160002060008373ffffffffffffffffffffffffffffffffffffffff1673ffffffffffffffffffffffffffffffffffffffff16815260200190815260200160002060009054906101000a900460ff16905092915050565b60007f01ffc9a7000000000000000000000000000000000000000000000000000000007bffffffffffffffffffffffffffffffffffffffffffffffffffffffff1916827bffffffffffffffffffffffffffffffffffffffffffffffffffffffff1916149050919050565b6000806109068361101c565b9050600073ffffffffffffffffffffffffffffffffffffffff168173ffffffffffffffffffffffffffffffffffffffff160361097957826040517f7e2732890000000000000000000000000000000000000000000000000000000081526004016109709190611946565b60405180910390fd5b80915050919050565b60006004600083815260200190815260200160002060009054906101000a900473ffffffffffffffffffffffffffffffffffffffff169050919050565b600033905090565b6109d48383836001611059565b505050565b6000806109e58461101c565b9050600073ffffffffffffffffffffffffffffffffffffffff168373ffffffffffffffffffffffffffffffffffffffff1614610a2757610a2681848661121e565b5b600073ffffffffffffffffffffffffffffffffffffffff168173ffffffffffffffffffffffffffffffffffffffff1614610ab857610a69600085600080611059565b6001600360008373ffffffffffffffffffffffffffffffffffffffff1673ffffffffffffffffffffffffffffffffffffffff168152602001908152602001600020600082825403925050819055505b600073ffffffffffffffffffffffffffffffffffffffff168573ffffffffffffffffffffffffffffffffffffffff1614610b3b576001600360008773ffffffffffffffffffffffffffffffffffffffff1673ffffffffffffffffffffffffffffffffffffffff168152602001908152602001600020600082825401925050819055505b846002600086815260200190815260200160002060006101000a81548173ffffffffffffffffffffffffffffffffffffffff021916908373ffffffffffffffffffffffffffffffffffffffff160217905550838573ffffffffffffffffffffffffffffffffffffffff168273ffffffffffffffffffffffffffffffffffffffff167fddf252ad1be2c89b69c2b068fc378daa952ba7f163c4a11628f55a4df523b3ef60405160405180910390a4809150509392505050565b610c0d8282604051806020016040528060008152506112e2565b5050565b600073ffffffffffffffffffffffffffffffffffffffff168273ffffffffffffffffffffffffffffffffffffffff1603610c8257816040517f5b08ba18000000000000000000000000000000000000000000000000000000008152600401610c799190611830565b60405180910390fd5b80600560008573ffffffffffffffffffffffffffffffffffffffff1673ffffffffffffffffffffffffffffffffffffffff16815260200190815260200160002060008473ffffffffffffffffffffffffffffffffffffffff1673ffffffffffffffffffffffffffffffffffffffff16815260200190815260200160002060006101000a81548160ff0219169083151502179055508173ffffffffffffffffffffffffffffffffffffffff168373ffffffffffffffffffffffffffffffffffffffff167f17307eab39ab6107e8899845ad3d59bd9653f200f220920489ca2b5937696c3183604051610d7391906116bf565b60405180910390a3505050565b60008373ffffffffffffffffffffffffffffffffffffffff163b1115610f31578273ffffffffffffffffffffffffffffffffffffffff1663150b7a02610dc46109bf565b8685856040518563ffffffff1660e01b8152600401610de69493929190611d88565b6020604051808303816000875af1925050508015610e2257506040513d601f19601f82011682018060405250810190610e1f9190611de9565b60015b610ea6573d8060008114610e52576040519150601f19603f3d011682016040523d82523d6000602084013e610e57565b606091505b506000815103610e9e57836040517f64a0ae92000000000000000000000000000000000000000000000000000000008152600401610e959190611830565b60405180910390fd5b805181602001fd5b63150b7a0260e01b7bffffffffffffffffffffffffffffffffffffffffffffffffffffffff1916817bffffffffffffffffffffffffffffffffffffffffffffffffffffffff191614610f2f57836040517f64a0ae92000000000000000000000000000000000000000000000000000000008152600401610f269190611830565b60405180910390fd5b505b50505050565b606060405180602001604052806000815250905090565b606060006001610f5d846112fe565b01905060008167ffffffffffffffff811115610f7c57610f7b6119d7565b5b6040519080825280601f01601f191660200182016040528015610fae5781602001600182028036833780820191505090505b509050600082602001820190505b600115611011578080600190039150507f3031323334353637383961626364656600000000000000000000000000000000600a86061a8153600a858161100557611004611e16565b5b04945060008503610fbc575b819350505050919050565b60006002600083815260200190815260200160002060009054906101000a900473ffffffffffffffffffffffffffffffffffffffff169050919050565b80806110925750600073ffffffffffffffffffffffffffffffffffffffff168273ffffffffffffffffffffffffffffffffffffffff1614155b156111c65760006110a2846108fa565b9050600073ffffffffffffffffffffffffffffffffffffffff168373ffffffffffffffffffffffffffffffffffffffff161415801561110d57508273ffffffffffffffffffffffffffffffffffffffff168173ffffffffffffffffffffffffffffffffffffffff1614155b8015611120575061111e81846107fc565b155b1561116257826040517fa9fbf51f0000000000000000000000000000000000000000000000000000000081526004016111599190611830565b60405180910390fd5b81156111c457838573ffffffffffffffffffffffffffffffffffffffff168273ffffffffffffffffffffffffffffffffffffffff167f8c5be1e5ebec7d5bd14f71427d1e84f3dd0314c0f7b2291e5b200ac8c7c3b92560405160405180910390a45b505b836004600085815260200190815260200160002060006101000a81548173ffffffffffffffffffffffffffffffffffffffff021916908373ffffffffffffffffffffffffffffffffffffffff16021790555050505050565b611229838383611451565b6112dd57600073ffffffffffffffffffffffffffffffffffffffff168373ffffffffffffffffffffffffffffffffffffffff160361129e57806040517f7e2732890000000000000000000000000000000000000000000000000000000081526004016112959190611946565b60405180910390fd5b81816040517f177e802f0000000000000000000000000000000000000000000000000000000081526004016112d4929190611e45565b60405180910390fd5b505050565b6112ec8383611512565b6112f96000848484610d80565b505050565b600080600090507a184f03e93ff9f4daa797ed6e38ed64bf6a1f010000000000000000831061135c577a184f03e93ff9f4daa797ed6e38ed64bf6a1f010000000000000000838161135257611351611e16565b5b0492506040810190505b6d04ee2d6d415b85acef81000000008310611399576d04ee2d6d415b85acef8100000000838161138f5761138e611e16565b5b0492506020810190505b662386f26fc1000083106113c857662386f26fc1000083816113be576113bd611e16565b5b0492506010810190505b6305f5e10083106113f1576305f5e10083816113e7576113e6611e16565b5b0492506008810190505b612710831061141657612710838161140c5761140b611e16565b5b0492506004810190505b60648310611439576064838161142f5761142e611e16565b5b0492506002810190505b600a8310611448576001810190505b80915050919050565b60008073ffffffffffffffffffffffffffffffffffffffff168373ffffffffffffffffffffffffffffffffffffffff161415801561150957508273ffffffffffffffffffffffffffffffffffffffff168473ffffffffffffffffffffffffffffffffffffffff1614806114ca57506114c984846107fc565b5b8061150857508273ffffffffffffffffffffffffffffffffffffffff166114f083610982565b73ffffffffffffffffffffffffffffffffffffffff16145b5b90509392505050565b600073ffffffffffffffffffffffffffffffffffffffff168273ffffffffffffffffffffffffffffffffffffffff16036115845760006040517f64a0ae9200000000000000000000000000000000000000000000000000000000815260040161157b9190611830565b60405180910390fd5b6000611592838360006109d9565b9050600073ffffffffffffffffffffffffffffffffffffffff168173ffffffffffffffffffffffffffffffffffffffff16146116065760006040517f73c6ac6e0000000000000000000000000000000000000000000000000000000081526004016115fd9190611830565b60405180910390fd5b505050565b6000604051905090565b600080fd5b600080fd5b60007fffffffff0000000000000000000000000000000000000000000000000000000082169050919050565b6116548161161f565b811461165f57600080fd5b50565b6000813590506116718161164b565b92915050565b60006020828403121561168d5761168c611615565b5b600061169b84828501611662565b91505092915050565b60008115159050919050565b6116b9816116a4565b82525050565b60006020820190506116d460008301846116b0565b92915050565b600081519050919050565b600082825260208201905092915050565b60005b838110156117145780820151818401526020810190506116f9565b60008484015250505050565b6000601f19601f8301169050919050565b600061173c826116da565b61174681856116e5565b93506117568185602086016116f6565b61175f81611720565b840191505092915050565b600060208201905081810360008301526117848184611731565b905092915050565b6000819050919050565b61179f8161178c565b81146117aa57600080fd5b50565b6000813590506117bc81611796565b92915050565b6000602082840312156117d8576117d7611615565b5b60006117e6848285016117ad565b91505092915050565b600073ffffffffffffffffffffffffffffffffffffffff82169050919050565b600061181a826117ef565b9050919050565b61182a8161180f565b82525050565b60006020820190506118456000830184611821565b92915050565b6118548161180f565b811461185f57600080fd5b50565b6000813590506118718161184b565b92915050565b6000806040838503121561188e5761188d611615565b5b600061189c85828601611862565b92505060206118ad858286016117ad565b9150509250929050565b6000806000606084860312156118d0576118cf611615565b5b60006118de86828701611862565b93505060206118ef86828701611862565b9250506040611900868287016117ad565b9150509250925092565b6000602082840312156119205761191f611615565b5b600061192e84828501611862565b91505092915050565b6119408161178c565b82525050565b600060208201905061195b6000830184611937565b92915050565b61196a816116a4565b811461197557600080fd5b50565b60008135905061198781611961565b92915050565b600080604083850312156119a4576119a3611615565b5b60006119b285828601611862565b92505060206119c385828601611978565b9150509250929050565b600080fd5b600080fd5b7f4e487b7100000000000000000000000000000000000000000000000000000000600052604160045260246000fd5b611a0f82611720565b810181811067ffffffffffffffff82111715611a2e57611a2d6119d7565b5b80604052505050565b6000611a4161160b565b9050611a4d8282611a06565b919050565b600067ffffffffffffffff821115611a6d57611a6c6119d7565b5b611a7682611720565b9050602081019050919050565b82818337600083830152505050565b6000611aa5611aa084611a52565b611a37565b905082815260208101848484011115611ac157611ac06119d2565b5b611acc848285611a83565b509392505050565b600082601f830112611ae957611ae86119cd565b5b8135611af9848260208601611a92565b91505092915050565b60008060008060808587031215611b1c57611b1b611615565b5b6000611b2a87828801611862565b9450506020611b3b87828801611862565b9350506040611b4c878288016117ad565b925050606085013567ffffffffffffffff811115611b6d57611b6c61161a565b5b611b7987828801611ad4565b91505092959194509250565b60008060408385031215611b9c57611b9b611615565b5b6000611baa85828601611862565b9250506020611bbb85828601611862565b9150509250929050565b7f4e487b7100000000000000000000000000000000000000000000000000000000600052602260045260246000fd5b60006002820490506001821680611c0c57607f821691505b602082108103611c1f57611c1e611bc5565b5b50919050565b6000606082019050611c3a6000830186611821565b611c476020830185611937565b611c546040830184611821565b949350505050565b7f4e487b7100000000000000000000000000000000000000000000000000000000600052601160045260246000fd5b6000611c968261178c565b91507fffffffffffffffffffffffffffffffffffffffffffffffffffffffffffffffff8203611cc857611cc7611c5c565b5b600182019050919050565b600081905092915050565b6000611ce9826116da565b611cf38185611cd3565b9350611d038185602086016116f6565b80840191505092915050565b6000611d1b8285611cde565b9150611d278284611cde565b91508190509392505050565b600081519050919050565b600082825260208201905092915050565b6000611d5a82611d33565b611d648185611d3e565b9350611d748185602086016116f6565b611d7d81611720565b840191505092915050565b6000608082019050611d9d6000830187611821565b611daa6020830186611821565b611db76040830185611937565b8181036060830152611dc98184611d4f565b905095945050505050565b600081519050611de38161164b565b92915050565b600060208284031215611dff57611dfe611615565b5b6000611e0d84828501611dd4565b91505092915050565b7f4e487b7100000000000000000000000000000000000000000000000000000000600052601260045260246000fd5b6000604082019050611e5a6000830185611821565b611e676020830184611937565b939250505056fea26469706673582212205efc024fd698b27b2b3087b38c6780dfea791a77be906889119cf6709a8c648e64736f6c63430008140033",
  "linkReferences": {},
  "deployedLinkReferences": {}
}